{
  "transactions": [
    {
      "hash": "0xa10108024515dd2506b72901ddf9aa1d7ddd88b08ca62409f50a893cc3bed039",
      "transactionType": "CREATE",
      "contractName": null,
      "contractAddress": "0xf9d5fcdc0690b902d3295c86d99cb1bbd784ee92",
      "function": null,
      "arguments": null,
      "transaction": {
        "from": "0xd63626cb447670dc1d53e3fa89cae7d57ff10829",
        "gas": "0xbc63a",
        "value": "0x0",
        "input": "0x6080604052348015600e575f80fd5b503380603357604051631e4fbdf760e01b81525f600482015260240160405180910390fd5b603a81603f565b50608e565b5f80546001600160a01b038381166001600160a01b0319831681178455604051919092169283917f8be0079c531659141344cd1fd0a4f28419497f9722a3daafe3b4186f6b6457e09190a35050565b61094c8061009b5f395ff3fe608060405234801561000f575f80fd5b506004361061008f575f3560e01c80638da5cb5b116100635780638da5cb5b146100f6578063a607a8d914610110578063bfb231d214610119578063c1d2d3b71461013c578063f2fde38b14610144575f80fd5b8062321d40146100935780633129e773146100b9578063715018a6146100d95780638511c937146100e3575b5f80fd5b6100a66100a13660046105ae565b610157565b6040519081526020015b60405180910390f35b6100cc6100c73660046105ae565b610180565b6040516100b091906105f3565b6100e16102cb565b005b6100a66100f136600461064c565b6102de565b5f546040516001600160a01b0390911681526020016100b0565b62030d406100a6565b61012c6101273660046105ae565b610449565b6040516100b094939291906106fb565b6002546100a6565b6100e1610152366004610726565b6104f6565b5f62030d408061016f84670de0b6b3a7640000610760565b6101799190610777565b9392505050565b6101a860405180608001604052805f8152602001606081526020015f81526020015f81525090565b5f821180156101b957506002548211155b6102005760405162461bcd60e51b8152602060048201526013602482015272125d195b48191bd95cc81b9bdd08195e1a5cdd606a1b60448201526064015b60405180910390fd5b5f828152600160208181526040928390208351608081019094528054845291820180549184019161023090610796565b80601f016020809104026020016040519081016040528092919081815260200182805461025c90610796565b80156102a75780601f1061027e576101008083540402835291602001916102a7565b820191905f5260205f20905b81548152906001019060200180831161028a57829003601f168201915b50505050508152602001600282015481526020016003820154815250509050919050565b6102d3610533565b6102dc5f61055f565b565b5f6102e7610533565b5f83511161032e5760405162461bcd60e51b81526020600482015260146024820152734e616d652063616e6e6f7420626520656d70747960601b60448201526064016101f7565b5f821161037d5760405162461bcd60e51b815260206004820152601c60248201527f5072696365206d7573742062652067726561746572207468616e20300000000060448201526064016101f7565b5f61038783610157565b600280549192505f610398836107ce565b9091555050604080516080810182526002548082526020808301888152838501889052606084018690525f92835260019182905293909120825181559251919291908201906103e79082610832565b5060408201518160020155606082015181600301559050506002547fa5adc50784bf6e37e1400409531ab81ecbbeebf44d0d317d5da8e7a0d2eb3e90858584604051610435939291906108f2565b60405180910390a250506002545b92915050565b600160208190525f91825260409091208054918101805461046990610796565b80601f016020809104026020016040519081016040528092919081815260200182805461049590610796565b80156104e05780601f106104b7576101008083540402835291602001916104e0565b820191905f5260205f20905b8154815290600101906020018083116104c357829003601f168201915b5050505050908060020154908060030154905084565b6104fe610533565b6001600160a01b03811661052757604051631e4fbdf760e01b81525f60048201526024016101f7565b6105308161055f565b50565b5f546001600160a01b031633146102dc5760405163118cdaa760e01b81523360048201526024016101f7565b5f80546001600160a01b038381166001600160a01b0319831681178455604051919092169283917f8be0079c531659141344cd1fd0a4f28419497f9722a3daafe3b4186f6b6457e09190a35050565b5f602082840312156105be575f80fd5b5035919050565b5f81518084528060208401602086015e5f602082860101526020601f19601f83011685010191505092915050565b60208152815160208201525f60208301516080604084015261061860a08401826105c5565b905060408401516060840152606084015160808401528091505092915050565b634e487b7160e01b5f52604160045260245ffd5b5f806040838503121561065d575f80fd5b823567ffffffffffffffff80821115610674575f80fd5b818501915085601f830112610687575f80fd5b81358181111561069957610699610638565b604051601f8201601f19908116603f011681019083821181831017156106c1576106c1610638565b816040528281528860208487010111156106d9575f80fd5b826020860160208301375f602093820184015298969091013596505050505050565b848152608060208201525f61071360808301866105c5565b6040830194909452506060015292915050565b5f60208284031215610736575f80fd5b81356001600160a01b0381168114610179575f80fd5b634e487b7160e01b5f52601160045260245ffd5b80820281158282048414176104435761044361074c565b5f8261079157634e487b7160e01b5f52601260045260245ffd5b500490565b600181811c908216806107aa57607f821691505b6020821081036107c857634e487b7160e01b5f52602260045260245ffd5b50919050565b5f600182016107df576107df61074c565b5060010190565b601f82111561082d57805f5260205f20601f840160051c8101602085101561080b5750805b601f840160051c820191505b8181101561082a575f8155600101610817565b50505b505050565b815167ffffffffffffffff81111561084c5761084c610638565b6108608161085a8454610796565b846107e6565b602080601f831160018114610893575f841561087c5750858301515b5f19600386901b1c1916600185901b1785556108ea565b5f85815260208120601f198616915b828110156108c1578886015182559484019460019091019084016108a2565b50858210156108de57878501515f19600388901b60f8161c191681555b505060018460011b0185555b505050505050565b606081525f61090460608301866105c5565b6020830194909452506040015291905056fea264697066735822122099bf62514a7f367a2f4ffaf6243622955e8b498d27a3f673fe006a4a737ec23564736f6c63430008190033",
        "nonce": "0x23",
        "chainId": "0xaa36a7"
      },
      "additionalContracts": [],
      "isFixedGasLimit": false
    },
    {
      "hash": "0xab22cf31d034dddd65312b9b01b147f3a44eeb0c99f129de6a8200f92bcdeabe",
      "transactionType": "CALL",
      "contractName": null,
      "contractAddress": "0xf9d5fcdc0690b902d3295c86d99cb1bbd784ee92",
      "function": "listItem(string,uint256)",
      "arguments": [
        "Test Item",
        "10000"
      ],
      "transaction": {
        "from": "0xd63626cb447670dc1d53e3fa89cae7d57ff10829",
        "to": "0xf9d5fcdc0690b902d3295c86d99cb1bbd784ee92",
        "gas": "0x31a6c",
        "value": "0x0",
        "input": "0x8511c93700000000000000000000000000000000000000000000000000000000000000400000000000000000000000000000000000000000000000000000000000002710000000000000000000000000000000000000000000000000000000000000000954657374204974656d0000000000000000000000000000000000000000000000",
        "nonce": "0x24",
        "chainId": "0xaa36a7"
      },
      "additionalContracts": [],
      "isFixedGasLimit": false
    }
  ],
  "receipts": [
    {
      "status": "0x1",
      "cumulativeGasUsed": "0x6730c3",
      "logs": [
        {
          "address": "0xf9d5fcdc0690b902d3295c86d99cb1bbd784ee92",
          "topics": [
            "0x8be0079c531659141344cd1fd0a4f28419497f9722a3daafe3b4186f6b6457e0",
            "0x0000000000000000000000000000000000000000000000000000000000000000",
            "0x000000000000000000000000d63626cb447670dc1d53e3fa89cae7d57ff10829"
          ],
          "data": "0x",
          "blockHash": "0xa3b9a77e7dfd8f94c404cdbab8b6d39a9532e1697413bb4efaaab5af18ed62b5",
          "blockNumber": "0x743ce8",
          "transactionHash": "0xa10108024515dd2506b72901ddf9aa1d7ddd88b08ca62409f50a893cc3bed039",
          "transactionIndex": "0x42",
          "logIndex": "0x6d",
          "removed": false
        }
      ],
      "logsBloom": "0x00000000000000800000000000000000000000000000000000800000000000000000000000000800000000000000000000000000000000000000000000000000000000000000000000000000000000000001000000000000000000000010000000000000020000000000000000000900000000000000000000000000000000400000000000000000000000000000000000000000000000000000000008000000000000000000000000000000000000000000000000000000000000001000000000000000000000000000000000000000000000000000000000000000000020000000000000000000000000000000000000000000000000000000000000000000",
      "type": "0x2",
      "transactionHash": "0xa10108024515dd2506b72901ddf9aa1d7ddd88b08ca62409f50a893cc3bed039",
      "transactionIndex": "0x42",
      "blockHash": "0xa3b9a77e7dfd8f94c404cdbab8b6d39a9532e1697413bb4efaaab5af18ed62b5",
      "blockNumber": "0x743ce8",
      "gasUsed": "0x90ea3",
      "effectiveGasPrice": "0x2c9c058d3",
      "from": "0xd63626cb447670dc1d53e3fa89cae7d57ff10829",
      "to": null,
      "contractAddress": "0xf9d5fcdc0690b902d3295c86d99cb1bbd784ee92"
    },
    {
      "status": "0x1",
      "cumulativeGasUsed": "0x694ff5",
      "logs": [
        {
          "address": "0xf9d5fcdc0690b902d3295c86d99cb1bbd784ee92",
          "topics": [
            "0xa5adc50784bf6e37e1400409531ab81ecbbeebf44d0d317d5da8e7a0d2eb3e90",
            "0x0000000000000000000000000000000000000000000000000000000000000001"
          ],
          "data": "0x0000000000000000000000000000000000000000000000000000000000000060000000000000000000000000000000000000000000000000000000000000271000000000000000000000000000000000000000000000000000b1a2bc2ec50000000000000000000000000000000000000000000000000000000000000000000954657374204974656d0000000000000000000000000000000000000000000000",
          "blockHash": "0xa3b9a77e7dfd8f94c404cdbab8b6d39a9532e1697413bb4efaaab5af18ed62b5",
          "blockNumber": "0x743ce8",
          "transactionHash": "0xab22cf31d034dddd65312b9b01b147f3a44eeb0c99f129de6a8200f92bcdeabe",
          "transactionIndex": "0x43",
          "logIndex": "0x6e",
          "removed": false
        }
      ],
      "logsBloom": "0x00000000000000800000000000000000000000000000000000002000000000000000000000000000000000000000000000000000000000000000000000040000000000000000000000000000000000000000000000040000000000000000000000000000000000000000000000000100000000000000000000000000000000000000020000000000000000000000000000000000000000000000000008000000000000000000000000000000000000000000000000000000000000000000000000000000000000000000000000000000000000000000000000000000000040000000000000000000000000000000000000000000000000000000000000100000",
      "type": "0x2",
      "transactionHash": "0xab22cf31d034dddd65312b9b01b147f3a44eeb0c99f129de6a8200f92bcdeabe",
      "transactionIndex": "0x43",
      "blockHash": "0xa3b9a77e7dfd8f94c404cdbab8b6d39a9532e1697413bb4efaaab5af18ed62b5",
      "blockNumber": "0x743ce8",
      "gasUsed": "0x21f32",
      "effectiveGasPrice": "0x2c9c058d3",
      "from": "0xd63626cb447670dc1d53e3fa89cae7d57ff10829",
      "to": "0xf9d5fcdc0690b902d3295c86d99cb1bbd784ee92",
      "contractAddress": null
    }
  ],
  "libraries": [],
  "pending": [],
  "returns": {},
  "timestamp": 1738419060,
  "chain": 11155111,
  "commit": "a9a042a"
}